S02700004F6E2D64656D616E642054726166666963206C6967687420636F6E74726F6C2E7372656372
S11300000C942A000C942E020C945B020C9488022B
S11300100C9447000C9447000C9447000C94470040
S11300200C9447000C9447000C9411030C94B502F3
S11300300C9447000C9447000C9447000C94470020
S11300400C9447000C9447000C9447000C94470010
S11300500C94470011241FBECFE5D8E0DEBFCDBF0E
S113006010E0A0E6B0E0E0E8F6E002C005900D92F2
S1130070A436B107D9F720E0A4E6B0E001C01D9290
S1130080A937B207E1F70E944E000C943E030C948A
S1130090000060E080E00E94440108950E9486010F
S11300A040E060E070E089E490E00E94040241E0F6
S11300B060E080E00E94620041E060E080E00E9435
S11300C0D300FFCF843008F068C0683008F067C000
S11300D08130F1F030F0823091F1833009F446C080
S11300E060C02AB381E090E0062E02C0880F991FF9
S11300F00A94E2F7809582238ABB8AB350E002C057
S1130100440F551F6A95E2F7482B4ABB80E00895D7
S113011027B381E090E0062E02C0880F991F0A944D
S1130120E2F78095822387BB87B350E002C0440F77
S1130130551F6A95E2F7482B47BB80E0089524B326
S113014081E090E0062E02C0880F991F0A94E2F71E
S11301508095822384BB84B350E002C0440F551FB2
S11301606A95E2F7482B44BB80E0089521B381E00F
S113017090E0062E02C0880F991F0A94E2F780953A
S1130180822381BB81B350E002C0440F551F6A959E
S1130190E2F7482B41BB80E0089583E0089584E0B2
S11301A0089580E00895843008F068C0683008F04D
S11301B067C08130F1F030F0823091F1833009F47E
S11301C046C060C02BB381E090E0062E02C0880FC9
S11301D0991F0A94E2F7809582238BBB8BB350E07E
S11301E002C0440F551F6A95E2F7482B4BBB80E0D1
S11301F0089528B381E090E0062E02C0880F991F6D
S11302000A94E2F78095822388BB88B350E002C049
S1130210440F551F6A95E2F7482B48BB80E00895C8
S113022025B381E090E0062E02C0880F991F0A943E
S1130230E2F78095822385BB85B350E002C0440F6A
S1130240551F6A95E2F7482B45BB80E0089522B319
S113025081E090E0062E02C0880F991F0A94E2F70D
S11302608095822382BB82B350E002C0440F551FA5
S11302706A95E2F7482B42BB80E0089583E0089535
S113028084E0089580E008958430D0F56830D0F596
S1130290813091F028F08230D9F0833029F134C0D4
S11302A02BB381E090E002C0880F991F6A95E2F7B2
S11302B082278BBB80E0089528B381E090E002C0E0
S11302C0880F991F6A95E2F7822788BB80E008951A
S11302D025B381E090E002C0880F991F6A95E2F788
S11302E0822785BB80E0089522B381E090E002C0BC
S11302F0880F991F6A95E2F7822782BB80E00895F0
S113030083E0089584E0089580E0089590E081E01A
S113031077C0292F30E0F901EE0FFF1FE20FF31F22
S1130320E05AFF4F4181403509F069C085B78E7F9F
S113033085BF85B78D7F85BF85B78B7F85BF85B723
S1130340877F85BF84B78F7B84BF8FB780688FBF5B
S1130350F901EE0FFF1FE20FF31FE05AFF4F8081F8
S11303608130C1F018F0823071F148C08BB78064DD
S11303708BBF45B7F901EE0FFF1F2E0F3F1FF90189
S1130380E05AFF4F8281842B85BF8AB780648ABF7D
S113039080E035C08BB780688BBF45B7F901EE0F9D
S11303A0FF1FE20FF31FE05AFF4F8281282F30E036
S11303B0220F331F220F331F242B25BF8AB78068D7
S11303C08ABF80E01CC08BB780628BBFF901EE0F3F
S11303D0FF1F2E0F3F1FF901E05AFF4F8281823029
S11303E019F484B784BF05C0833019F484B78064DA
S11303F084BF8AB780628ABF80E001C087E09F5FC4
S1130400992309F486CF0895009721F1413071F0C2
S113041018F04230A9F020C09093670080936600E2
S1130420709365006093640080E008959093690080
S113043080936800709367006093660080E008957D
S113044090936B0080936A007093690060936800D6
S113045080E0089582E0089587E008951F920F9246
S11304600FB60F9211242F933F934F935F936F9383
S11304707F938F939F93AF93BF93EF93FF93E091F9
S11304806600F0916700309729F0809164009091A4
S113049065000995FF91EF91BF91AF919F918F9165
S11304A07F916F915F914F913F912F910F900FBE6C
S11304B00F901F9018951F920F920FB60F92112450
S11304C02F933F934F935F936F937F938F939F9358
S11304D0AF93BF93EF93FF93E0916800F0916900AD
S11304E0309729F080916600909167000995FF91FB
S11304F0EF91BF91AF919F918F917F916F915F9198
S11305004F913F912F910F900FBE0F901F90189510
S11305101F920F920FB60F9211242F933F934F9374
S11305205F936F937F938F939F93AF93BF93EF9357
S1130530FF93E0916A00F0916B00309729F080916D
S11305406800909169000995FF91EF91BF91AF9177
S11305509F918F917F916F915F914F913F912F91D7
S11305600F900FBE0F901F9018951F920F920FB609
S11305700F9211242F933F934F935F936F937F9325
S11305808F939F93AF93BF93EF93FF9380917000EA
S113059090917100892BA1F180916800909169007C
S11305A0A0916A00B0916B000196A11DB11D8093CA
S11305B0680090936900A0936A00B0936B00409127
S11305C075005091760060917700709178008417DF
S11305D09507A607B707A1F4109268001092690066
S11305E010926A0010926B008091740082BFE091B7
S11305F07000F091710080916C0090916D000995EC
S1130600FF91EF91BF91AF919F918F917F916F91E6
S11306105F914F913F912F910F900FBE0F901F90BC
S113062018951F920F920FB60F9211242F933F9398
S11306304F935F936F937F938F939F93AF93BF93E6
S1130640EF93FF93E0917200F0917300309729F0DB
S113065080916E0090916F000995FF91EF91BF9189
S1130660AF919F918F917F916F915F914F913F9146
S11306702F910F900FBE0F901F901895F894FFCFF5
S10706800050000022
S9030000FC
