:100000000C942A000C94E7030C9414040C944104FF
:100010000C9447000C9447000C9447000C94470044
:100020000C9447000C9447000C9401060C94A50511
:100030000C9447000C9447000C9447000C94470024
:100040000C9447000C9447000C9447000C94470014
:100050000C94470011241FBECFE5D8E0DEBFCDBF12
:1000600010E0A0E6B0E0EEECF0E102C005900D92E9
:10007000AE37B107D9F720E0AEE7B0E001C01D927E
:10008000A539B207E1F70E9418020C9465080C9498
:10009000000080916000811124C081E080937E0087
:1000A0001092610010927F0083E00E94AC0184E016
:1000B0000E94D90185E00E94D90180E00E94D90107
:1000C00081E00E94D90182E00E94AC0120E030E092
:1000D00049E450E068E873E180E090E00E94210587
:1000E00045C09FEF980F933120F09BEE980F94310D
:1000F000C0F481E080937F0010927E001092610036
:1001000084E00E94060281E00E94060220E030E0C6
:1001100049E450E06AEF70E080E090E00E94210541
:1001200025C0843119F581E08093610010927E0032
:1001300010927F0085E00E94AC0184E00E94D9010A
:1001400083E00E94D90180E00E94AC0181E00E941E
:10015000D90182E00E94D90120E030E049E450E07A
:1001600068E873E180E090E00E94210580916000E2
:100170008F5F80936000893210F0109260000895C4
:10018000CF92DF92EF92FF9280917E00813081F4D6
:1001900080E00E94D90181E00E94D90182E00E94A2
:1001A000AC0168E873E180E090E00E94870444C0FD
:1001B00080916100813021F080917F008130E1F5F4
:1001C00080E00E94AC0181E00E94D90182E00E949F
:1001D000D901C12CD12C760111C081E00E94060208
:1001E00084E00E9406026AEF70E080E090E00E94E6
:1001F00087048FEFC81AD80AE80AF80A85E1C816FA
:10020000D104E104F10448F383E00E94AC0184E0EE
:100210000E94D90185E00E94D90180E00E94D901A5
:1002200081E00E94D90182E00E94AC0168E873E19C
:1002300080E090E00E948704C12CD12C760111C08F
:1002400081E00E94060284E00E9406026AEF70E0EC
:1002500080E090E00E9487048FEFC81AD80AE80A6D
:10026000F80A85E1C816D104E104F10448F385E0F9
:100270000E94AC0184E00E94D90183E00E94D90170
:1002800080E00E94AC0181E00E94D90182E00E94DE
:10029000D90184E18093600081E080936100109235
:1002A0007E0010927F0020E030E049E450E068E8F2
:1002B00073E180E090E00E942105FF90EF90DF90D5
:1002C000CF9008950E946E040E943F030E948D010A
:1002D00020E030E049E450E068E873E180E090E03D
:1002E0000E94210540E060E070E080EC90E00E9418
:1002F000BD0385E00E94AC0184E00E94D90183E047
:100300000E94D90180E00E94AC0181E00E94D901E5
:1003100082E00E94D90180E008951F93CF93DF937C
:1003200010E081E013C0C12FD0E0CC0FDD1FCC0F57
:10033000DD1FCE59DF4F698141E088810E941B0299
:100340004B81698188810E948C021F5F163058F3AF
:10035000DF91CF911F910895863038F590E0FC0130
:10036000EE0FFF1FEE0FFF1FEE59FF4F22812830C7
:1003700069F4880F991F880F991FFC01EE59FF4FF0
:10038000618140E080810E948C020895293079F4D7
:10039000880F991F880F991FFC01EE59FF4F61814B
:1003A00041E080810E948C0208958AE008958AE0ED
:1003B0000895863038F590E0FC01EE0FFF1FEE0F38
:1003C000FF1FEE59FF4F2281283069F4880F991FD3
:1003D000880F991FFC01EE59FF4F618141E0808138
:1003E0000E948C020895293079F4880F991F880F94
:1003F000991FFC01EE59FF4F618140E080810E940E
:100400008C0208958AE008958AE00895863070F499
:10041000E82FF0E0EE0FFF1FEE0FFF1FEE59FF4F2A
:10042000618180810E94FD0281E008958AE0089543
:100430000E946201FFCF843008F068C0683008F085
:1004400067C08130F1F030F0823091F1833009F4EF
:1004500046C060C02AB381E090E0062E02C0880F3B
:10046000991F0A94E2F7809582238ABB8AB350E0F1
:1004700002C0440F551F6A95E2F7482B4ABB80E043
:10048000089527B381E090E0062E02C0880F991FDF
:100490000A94E2F78095822387BB87B350E002C0BD
:1004A000440F551F6A95E2F7482B47BB80E008953B
:1004B00024B381E090E0062E02C0880F991F0A94B1
:1004C000E2F78095822384BB84B350E002C0440FDE
:1004D000551F6A95E2F7482B44BB80E0089521B38D
:1004E00081E090E0062E02C0880F991F0A94E2F77F
:1004F0008095822381BB81B350E002C0440F551F19
:100500006A95E2F7482B41BB80E0089583E00895A7
:1005100084E0089580E00895843008F068C0683071
:1005200008F067C08130F1F030F0823091F1833013
:1005300009F446C060C02BB381E090E0062E02C0F3
:10054000880F991F0A94E2F7809582238BBB8BB3A7
:1005500050E002C0440F551F6A95E2F7482B4BBB91
:1005600080E0089528B381E090E0062E02C0880F55
:10057000991F0A94E2F78095822388BB88B350E0E4
:1005800002C0440F551F6A95E2F7482B48BB80E034
:10059000089525B381E090E0062E02C0880F991FD0
:1005A0000A94E2F78095822385BB85B350E002C0B0
:1005B000440F551F6A95E2F7482B45BB80E008952C
:1005C00022B381E090E0062E02C0880F991F0A94A2
:1005D000E2F78095822382BB82B350E002C0440FD1
:1005E000551F6A95E2F7482B42BB80E0089583E0EF
:1005F000089584E0089580E008958430D0F568304F
:10060000D0F5813091F028F08230D9F0833029F193
:1006100034C02BB381E090E002C0880F991F6A9527
:10062000E2F782278BBB80E0089528B381E090E059
:1006300002C0880F991F6A95E2F7822788BB80E085
:10064000089525B381E090E002C0880F991F6A9554
:10065000E2F7822785BB80E0089522B381E090E035
:1006600002C0880F991F6A95E2F7822782BB80E05B
:10067000089583E0089584E0089580E0089590E06F
:1006800081E077C0292F30E0F901EE0FFF1FE20F64
:10069000F31FE658FF4F4181403509F069C085B727
:1006A0008E7F85BF85B78D7F85BF85B78B7F85BFE3
:1006B00085B7877F85BF84B78F7B84BF8FB78068FE
:1006C0008FBFF901EE0FFF1FE20FF31FE658FF4F38
:1006D00080818130C1F018F0823071F148C08BB751
:1006E00080648BBF45B7F901EE0FFF1F2E0F3F1F30
:1006F000F901E658FF4F8281842B85BF8AB7806459
:100700008ABF80E035C08BB780688BBF45B7F901E1
:10071000EE0FFF1FE20FF31FE658FF4F8281282FD5
:1007200030E0220F331F220F331F242B25BF8AB73F
:1007300080688ABF80E01CC08BB780628BBFF901E4
:10074000EE0FFF1F2E0F3F1FF901E658FF4F82816A
:10075000823019F484B784BF05C0833019F484B79C
:10076000806484BF8AB780628ABF80E001C087E06E
:100770009F5F992309F486CF0895009721F14130B6
:1007800071F018F04230A9F020C09093830080935C
:100790008200709381006093800080E008959093C0
:1007A000850080938400709383006093820080E0D2
:1007B00008959093870080938600709385006093DE
:1007C000840080E0089582E0089587E008951F92F4
:1007D0000F920FB60F9211242F933F934F935F9375
:1007E0006F937F938F939F93AF93BF93EF93FF93F9
:1007F000E0918200F0918300309729F08091800091
:10080000909181000995FF91EF91BF91AF919F91D8
:100810008F917F916F915F914F913F912F910F90A9
:100820000FBE0F901F9018951F920F920FB60F9248
:1008300011242F933F934F935F936F937F938F93E5
:100840009F93AF93BF93EF93FF93E0918400F09158
:100850008500309729F0809182009091830009955E
:10086000FF91EF91BF91AF919F918F917F916F9188
:100870005F914F913F912F910F900FBE0F901F905E
:1008800018951F920F920FB60F9211242F933F933A
:100890004F935F936F937F938F939F93AF93BF9388
:1008A000EF93FF93E0918600F0918700309729F055
:1008B00080918400909185000995FF91EF91BF91FF
:1008C000AF919F918F917F916F915F914F913F91E8
:1008D0002F910F900FBE0F901F90189583B7887FB0
:1008E00083BF83B7836083BF83B78F7C83BF83B7A6
:1008F00083BF89B78E7F89BF89B78D7F89BF83B753
:100900008F7B83BF83B7877F83BF80E008954F923B
:100910005F926F927F928F929F92AF92BF92CF928F
:10092000DF92EF92FF920E9441072FE632E143E807
:1009300051E40E94A0062B013C010E9412074B01CA
:100940005C016B017C018FEFC81AD80AE80AF80A2B
:10095000C501B4010E9441079B01AC01C301B20172
:100960000E942E062B013C0120E030E0A9010E94EC
:100970009B068823F1F120E030E040E853E4C30116
:10098000B2010E94F8079B01AC0160E070E080E8D2
:1009900093E40E942E064B015C010E9412070E9404
:1009A00041079B01AC01C501B4010E942E062B0139
:1009B0003C0120E030E040E05FE30E94F307882341
:1009C00094F020E030E040E85FE3C301B2010E9410
:1009D0009B06882344F4C501B4010E94120781E0FC
:1009E000860F82BF1BC0C501B4010E94120762BFFF
:1009F00015C08092910090929200A0929300B092C4
:100A0000940012BE0BC008B600FEFDCF88B781600F
:100A100088BF81E0C81AD108E108F108C114D104E7
:100A2000E104F10481F780E0FF90EF90DF90CF9038
:100A3000BF90AF909F908F907F906F905F904F90FE
:100A400008954F925F926F927F928F929F92AF9292
:100A5000BF92CF92DF92EF92FF920F931F93CF93AB
:100A6000DF93EA01890129B7216029BF0E9441076C
:100A70002FE632E143E851E40E94A0064B015C01FD
:100A80000E9412076B017C012B013C018FEF481A79
:100A9000580A680A780AC701B6010E9441079B01FB
:100AA000AC01C501B4010E942E064B015C0120E09F
:100AB00030E0A9010E949B068823F1F0409291004A
:100AC00050929200609293007092940020E030E087
:100AD00040E853E4C501B4010E94F8079B01AC0152
:100AE00060E070E080E893E40E942E060E94120706
:100AF00062BF609390000BC012BE10929000C09233
:100B00009100D0929200E0929300F092940020978E
:100B100051F0D0938D00C0938C0010938900009306
:100B2000880080E001C082E0DF91CF911F910F919A
:100B3000FF90EF90DF90CF90BF90AF909F908F90FD
:100B40007F906F905F904F9008951F920F920FB615
:100B50000F9211242F933F934F935F936F937F9343
:100B60008F939F93AF93BF93EF93FF9380918C00EC
:100B700090918D00892BA1F1809184009091850046
:100B8000A0918600B09187000196A11DB11D8093B0
:100B9000840090938500A0938600B09387004091D5
:100BA000910050919200609193007091940084178D
:100BB0009507A607B707A1F410928400109285004C
:100BC00010928600109287008091900082BFE09181
:100BD0008C00F0918D00809188009091890009959A
:100BE000FF91EF91BF91AF919F918F917F916F9105
:100BF0005F914F913F912F910F900FBE0F901F90DB
:100C000018951F920F920FB60F9211242F933F93B6
:100C10004F935F936F937F938F939F93AF93BF9304
:100C2000EF93FF93E0918E00F0918F00309729F0C1
:100C300080918A0090918B000995FF91EF91BF916F
:100C4000AF919F918F917F916F915F914F913F9164
:100C50002F910F900FBE0F901F9018955058BB27E3
:100C6000AA270E9446060C94B9070E94AB0738F0E9
:100C70000E94B20720F039F49F3F19F426F40C9437
:100C8000A8070EF4E095E7FB0C94A207E92F0E9459
:100C9000CA0758F3BA17620773078407950720F04D
:100CA00079F4A6F50C94EC070EF4E0950B2EBA2F10
:100CB000A02D0B01B90190010C01CA01A001112462
:100CC000FF27591B99F0593F50F4503E68F11A160E
:100CD000F040A22F232F342F4427585FF3CF46959F
:100CE00037952795A795F0405395C9F77EF41F16C1
:100CF000BA0B620B730B840BBAF09150A1F0FF0F8B
:100D0000BB1F661F771F881FC2F70EC0BA0F621F76
:100D1000731F841F48F4879577956795B795F79566
:100D20009E3F08F0B0CF9395880F08F09927EE0FFB
:100D30009795879508950E947E0708F481E00895AD
:100D40000E94B4060C94B9070E94B20758F00E94A2
:100D5000AB0740F029F45F3F29F00C94A207511132
:100D60000C94ED070C94A8070E94CA0768F3992316
:100D7000B1F3552391F3951B550BBB27AA27621797
:100D80007307840738F09F5F5F4F220F331F441FA4
:100D9000AA1FA9F335D00E2E3AF0E0E832D09150D8
:100DA0005040E695001CCAF72BD0FE2F29D0660FC5
:100DB000771F881FBB1F261737074807AB07B0E808
:100DC00009F0BB0B802DBF01FF2793585F4F3AF00E
:100DD0009E3F510578F00C94A2070C94ED075F3FFD
:100DE000E4F3983ED4F3869577956795B795F79594
:100DF0009F5FC9F7880F911D9695879597F908957C
:100E0000E1E0660F771F881FBB1F62177307840717
:100E1000BA0720F0621B730B840BBA0BEE1F88F726
:100E2000E09508950E94D20788F09F5798F0B92F57
:100E30009927B751B0F0E1F0660F771F881F991F0F
:100E40001AF0BA95C9F714C0B13091F00E94EC07BE
:100E5000B1E008950C94EC07672F782F8827B85FCE
:100E600039F0B93FCCF3869577956795B395D9F767
:100E70003EF490958095709561957F4F8F4F9F4F71
:100E80000895E89409C097FB3EF49095809570957D
:100E900061957F4F8F4F9F4F9923A9F0F92F96E9C6
:100EA000BB279395F695879577956795B795F1113B
:100EB000F8CFFAF4BB0F11F460FF1BC06F5F7F4FD8
:100EC0008F4F9F4F16C0882311F096E911C07723EA
:100ED00021F09EE8872F762F05C0662371F096E8F3
:100EE000862F70E060E02AF09A95660F771F881FC2
:100EF000DAF7880F9695879597F90895990F000866
:100F0000550FAA0BE0E8FEEF16161706E807F907DB
:100F1000C0F012161306E407F50798F0621B730B76
:100F2000840B950B39F40A2661F0232B242B252BF7
:100F300021F408950A2609F4A140A6958FEF811D9A
:100F4000811D089597F99F6780E870E060E008953B
:100F50009FEF80EC089500240A94161617061806D1
:100F60000906089500240A941216130614060506AD
:100F70000895092E0394000C11F4882352F0BB0F3E
:100F800040F4BF2B11F460FF04C06F5F7F4F8F4FA1
:100F90009F4F089557FD9058440F551F59F05F3FDC
:100FA00071F04795880F97FB991F61F09F3F79F08B
:100FB00087950895121613061406551FF2CF46950D
:100FC000F1DF08C0161617061806991FF1CF86958F
:100FD0007105610508940895E894BB276627772773
:100FE000CB0197F908950E947E0708F48FEF0895CA
:100FF0000E940B080C94B9070E94AB0738F00E94BE
:10100000B20720F0952311F00C94A2070C94A807C6
:1010100011240C94ED070E94CA0770F3959FC1F349
:10102000950F50E0551F629FF001729FBB27F00D96
:10103000B11D639FAA27F00DB11DAA1F649F6627EB
:10104000B00DA11D661F829F2227B00DA11D621F3A
:10105000739FB00DA11D621F839FA00D611D221FF4
:10106000749F3327A00D611D231F849F600D211DD8
:10107000822F762F6A2F11249F5750409AF0F1F05B
:1010800088234AF0EE0FFF1FBB1F661F771F881FC4
:1010900091505040A9F79E3F510580F00C94A20753
:1010A0000C94ED075F3FE4F3983ED4F38695779573
:1010B0006795B795F795E7959F5FC1F7FE2B880F6A
:0E10C000911D9695879597F90895F894FFCFA6
:1010CE0015010100090001010900010209000000DB
:0E10DE00090000010900000209000050000096
:00000001FF
