:100000000C942A000C9413010C9440010C946D0183
:100010000C9447000C9447000C9447000C94470044
:100020000C9447000C9447000C94F6010C949A0130
:100030000C9447000C9447000C9447000C94470024
:100040000C9447000C9447000C9447000C94470014
:100050000C94470011241FBECFE5D8E0DEBFCDBF12
:1000600010E0A0E6B0E0EAE4F4E002C005900D92F2
:10007000A036B107D9F720E0A0E6B0E001C01D929C
:10008000A537B207E1F70E9449000C9423020C94B3
:100090000000CF93DF931F92CDB7DEB740E060E062
:1000A00080E00E945B00AE014F5F5F4F60E080E048
:1000B0000E94CC00FFCF843008F068C0683008F0A0
:1000C00067C08130F1F030F0823091F1833009F473
:1000D00046C060C02AB381E090E0062E02C0880FBF
:1000E000991F0A94E2F7809582238ABB8AB350E075
:1000F00002C0440F551F6A95E2F7482B4ABB80E0C7
:10010000089527B381E090E0062E02C0880F991F62
:100110000A94E2F78095822387BB87B350E002C040
:10012000440F551F6A95E2F7482B47BB80E00895BE
:1001300024B381E090E0062E02C0880F991F0A9434
:10014000E2F78095822384BB84B350E002C0440F61
:10015000551F6A95E2F7482B44BB80E0089521B310
:1001600081E090E0062E02C0880F991F0A94E2F702
:100170008095822381BB81B350E002C0440F551F9C
:100180006A95E2F7482B41BB80E0089583E008952B
:1001900084E0089580E008958430E8F56830E8F55B
:1001A00041155105E1F1813091F028F08230D9F00C
:1001B000833029F136C089B390E002C095958795C8
:1001C0006A95E2F78170FA01808380E0089586B332
:1001D00090E002C0959587956A95E2F78170FA01E3
:1001E000808380E0089583B390E002C09595879561
:1001F0006A95E2F78170FA01808380E0089580B308
:1002000090E002C0959587956A95E2F78170FA01B2
:10021000808380E0089583E0089584E0089582E07B
:10022000089580E008951F920F920FB60F92112447
:100230002F933F934F935F936F937F938F939F93EE
:10024000AF93BF93EF93FF93E0916200F09163004F
:10025000309729F080916000909161000995FF919D
:10026000EF91BF91AF919F918F917F916F915F912E
:100270004F913F912F910F900FBE0F901F901895A7
:100280001F920F920FB60F9211242F933F934F930B
:100290005F936F937F938F939F93AF93BF93EF93EE
:1002A000FF93E0916400F0916500309729F0809110
:1002B0006200909163000995FF91EF91BF91AF911A
:1002C0009F918F917F916F915F914F913F912F916E
:1002D0000F900FBE0F901F9018951F920F920FB6A0
:1002E0000F9211242F933F934F935F936F937F93BC
:1002F0008F939F93AF93BF93EF93FF93E09166002B
:10030000F0916700309729F080916400909165002A
:100310000995FF91EF91BF91AF919F918F917F913F
:100320006F915F914F913F912F910F900FBE0F9062
:100330001F9018951F920F920FB60F9211242F93B2
:100340003F934F935F936F937F938F939F93AF935D
:10035000BF93EF93FF9380916C0090916D00892B78
:10036000A1F18091640090916500A0916600B09128
:1003700067000196A11DB11D8093640090936500F4
:10038000A0936600B0936700409171005091720095
:10039000609173007091740084179507A607B707E2
:1003A000A1F4109264001092650010926600109201
:1003B00067008091700082BFE0916C00F0916D0049
:1003C00080916800909169000995FF91EF91BF912C
:1003D000AF919F918F917F916F915F914F913F91DD
:1003E0002F910F900FBE0F901F9018951F920F9294
:1003F0000FB60F9211242F933F934F935F936F93F8
:100400007F938F939F93AF93BF93EF93FF93E0916D
:100410006E00F0916F00309729F080916A00909102
:100420006B000995FF91EF91BF91AF919F918F91D3
:100430007F916F915F914F913F912F910F900FBEE0
:0A0440000F901F901895F894FFCF5D
:00000001FF
